:020000020000FC
:100000000FC00DC00CC00BC00AC009C008C007C09B
:1000100006C005C004C003C002C001C000C01895DE
:1000200002E00EBF0FE50DBFA89508E10093210087
:1000300001E20093210005E007BB21D013D0B5D029
:100040003068C098862E56D03EF0892E53D026F0C8
:10005000782F37FD02D0F6CFF5CFA7D00EF0089558
:100060005A9509F41FD030FD05C0E0916000F09171
:100070006100F3CFE0916200F0916300EECFA6E65D
:10008000B0E00CE311271D931D931D931D931D9349
:100090001D930A95C1F70AE90093640002E00093FA
:1000A000650008954427E0916400F0916500059192
:1000B0000F3F39F40AE90093640002E00093650001
:1000C000F1CF102F307F1F70312B0095007F202E35
:1000D0005591059100936000059100936100059191
:1000E00000936200059100936300E0936400F09335
:1000F00065000895882009F408959FD005D0BED0EA
:100100000EF408958A94F6CF0F932F93AF93BF9375
:100110002CE3ABE6B0E01D9108E0C29A111F08F491
:1001200010D0C29808F00DD00A95B9F7AB5FBF4F59
:100130002A9589F7C298BF91AF912F910F91089599
:10014000FFCF00000895AA24BB24222311F4AA940F
:1001500007C0121B004020F0A394D9F7B394F9CF45
:10016000120F08951F932F93AF92BF92CF920D93CA
:10017000AC5FBF4FCC90A450B040AA240C1530F413
:10018000AA94102F0C2DC12E272F01C0262FAD921F
:100190000C191127D8DFAD92BD92AE5FBF4FCF9043
:1001A000BF90AF902F911F910895A895689430FF4C
:1001B00002C0EE50F040C0916000D0916100EC1799
:1001C000FD0708F40895C0916200D0916300EC1718
:1001D000FD0708F00895659195918591EF5FFF4FB8
:1001E0002AE031FD03C0A6E6B0E002C0ACEBB1E00E
:1001F00005910F9302950F700BD00F910F7008D0DF
:100200002A95B1F7E89430FF0895EE50F040089534
:10021000EF93FF93000F000FEEE7F0E1E00F0027F0
:10022000F01F05919FDF05919DDF05919BDFFF91F9
:10023000EF9131FDA452B0400895A6E6B0E02CE362
:10024000ED900D91BD90CD90DD90FC90A150B0400F
:10025000EF1408F006C0DB18FC0848F0EF1438F47F
:1002600008C0DB0CFC1C18F0FE1408F402C0FE2CC5
:10027000DD24DD92FD922A9519F708950F931F93BF
:1002800018ECA895022D03955CDF0A95E9F71A95FD
:10029000C1F71F910F9108950895F0015E037A034D
:1002A000C0017A038803C005D006120880058803C0
:1002B0008E05C0058E05D006A002EC0D4E0EE01096
:1002C0001E0C800CE2101E0C800C00014203500337
:1002D00000047E09F80A02047E09F80A00015003AE
:1002E0005E03420212087E09600212087E09E010D5
:1002F0001E0C800CE2101E0C800CC21012087E092D
:10030000E01012087E09E001F80A1E0C8210800C31
:10031000E20C8010800CE20C0201E20CEC0D0001FA
:1003200042035003FFFF0800080100000000000026
:100330000000000008000801FFFFFFFFFFFFFFFFB4
:10034000FFFF7F807F01FFFFFFFFFFFFFFFFFFFF3A
:100350007F807F01000000000000000000007F801F
:100360007F01DDDDDDDDDDDDDDDDDDDD7F807F01EC
:1003700000000000000000000000108010019999AA
:100380009999999999999999080008010000000094
:1003900000000000000008000801F000000000005C
:1003A00000000005080008011F0000000000000018
:1003B00000570800080101F000000000000005706F
:1003C00008000801001F000000000000570008009E
:1003D00008010001F000000000057000080008019D
:1003E00000001F0000000057000008000801000086
:1003F00001F0000005700000080008010000001F67
:100400000000570000000800080100000001F0058E
:100410007000000008000801000000001F570000E5
:10042000000004000401000000003FF30000000091
:100430000400040100000003FFFF3000000004007E
:1004400004010000003FFFFFF3000000040004016E
:10045000000003FFFFFFFF30000004000401000064
:100460003FFFFFFFFFF30000040004010003FFFF54
:10047000FFFFFFFF300004000401003FFFFFF33FD8
:10048000FFFFF3000400040103FFFFFF3223FFFF1F
:10049000FF30050014013FFFFFF321123FFFFFF380
:1004A00005001401FFFFFF32177123FFFFFF060055
:1004B0001401FFFFF3217667123FFFFF06001401CE
:1004C000FFFF321765567123FFFF07001401FFF38A
:1004D0002176544567123FFF07001401FF3217656C
:1004E0004334567123FF08001401F321765433334B
:1004F0004567123F08001401321765433333345601
:1005000071230900140121765433333333456712C4
:1005100009001401176543333333333456710A002D
:100520001401765433333333333345670A001401EF
:10053000654333333333333334560B0014015433B0
:1005400033333333333333450B0014014333333305
:100550003333333333340C00140133333333333315
:10056000333333330E001401111111111111111114
:10057000111110001401777777777777777777778E
:10058000010014010000000000000000000008004D
:1005900008017FFFFFFFFFFFFFFFFFF108000801D9
:1005A00067FFFFFFFFFFFFFFFF1208000801567FF4
:1005B000FFFFFFFFFFFFF12308000801F567FFFFC2
:1005C000FFFFFFFF123F08000801FF567FFFFFFFFC
:1005D000FFF123FF08000801FFF567FFFFFFFF128F
:1005E0003FFF08000801FFFF567FFFFFF123FFFFD9
:1005F00008000801FFFFF567FFFF123FFFFF08003B
:100600000801FFFFFF567FF123FFFFFF08000801ED
:10061000FFFFFFF567123FFFFFFF08000801FFFF24
:10062000FFFF5123FFFFFFFF08000801FFFFFFFF4F
:100630001237FFFFFFFF08000801FFFFFFF12356FD
:100640007FFFFFFF08000801FFFFFF123FF567FF74
:10065000FFFF08000801FFFFF123FFFF567FFFFFA8
:1006600008000801FFFF123FFFFFF567FFFF0800CA
:100670000801FFF123FFFFFFFF567FFF080008017D
:10068000FF123FFFFFFFFFF567FF08000801F1239E
:10069000FFFFFFFFFFFF567F08000801123FFFFF2B
:1006A000FFFFFFFFF5670800080123FFFFFFFFFFC3
:1006B000FFFFFF56080008013FFFFFFFFFFFFFFF9E
:1006C000FFF508000801FFFFFFFFFFFFFFFFFFFF2F
:1006D00008000801000000000000000000050800FC
:1006E0000801F000000000000000005708000801A9
:1006F0001F0000000000000005700800080101F064
:10070000000000000000570008000801001F000062
:10071000000000057000080008010001F000000062
:10072000005700000800080100001F0000000570CD
:10073000000008000801000001F000005700000060
:10074000080008010000001F0005700000000800FC
:10075000080100000001F057000000000800080137
:10076000000000001F7000000000080008010000E9
:10077000000051F000000000080008010000000522
:10078000701F000000000800080100000057000171
:10079000F0000000080008010000057000001F00C4
:1007A00000000800080100005700000001F00000F0
:1007B00008000801000570000000001F000008008C
:1007C00008010057000000000001F00008000801C7
:1007D00005700000000000001F000800080157001D
:1007E00000000000000001F0080008017000000097
:1007F00000000000001F08000801000000000000C9
:1008000000000001080008010000000000000000D6
:1008100000001000100110000000000000000000A7
:100820001000100121000000000000000000100076
:100830001001321000000000000000001000100144
:10084000432100000000000000001000100154329D
:10085000100000000000000010001001654321009E
:10086000000000000000100010017654321000005B
:100870000000000010001001076543210000000087
:10088000000010001001007654321000000000003B
:100890001000100100076543210000000000100057
:1008A000100100007654321000000000100010010A
:1008B0000000076543210000000010001001000047
:1008C00000765432100000001000100100000007F4
:1008D0006543210000001000100100000000765464
:1008E00032100000100010010000000007654321D5
:1008F00000001000100100000000007654321000CB
:1009000010001001000000000007654321001000E6
:100910001001000000000000765432101000100199
:1009200000000000000007654321100010010000D6
:10093000000000000076543210001001000000009A
:1009400000000007654310001001000000000000D7
:1009500000007654100010010000000000000000AC
:100960000765100010010000000000000000007684
:10097000100010010000000000000000000710003F
:1009800010011FFFFFFFFFFFFFFFFFFF100010011F
:1009900021FFFFFFFFFFFFFFFFFF10001001321FCD
:1009A000FFFFFFFFFFFFFFFF100010014321FFFFCC
:1009B000FFFFFFFFFFFF1000100154321FFFFFFF7A
:1009C000FFFFFFFF10001001654321FFFFFFFFFF46
:1009D000FFFF100010017654321FFFFFFFFFFFFFE3
:1009E00010001001F7654321FFFFFFFFFFFF10001C
:1009F0001001FF7654321FFFFFFFFFFF10001001B0
:100A0000FFF7654321FFFFFFFFFF10001001FFFF0D
:100A10007654321FFFFFFFFF10001001FFFFF76544
:100A20004321FFFFFFFF10001001FFFFFF7654324C
:100A30001FFFFFFF10001001FFFFFFF7654321FFBD
:100A4000FFFF10001001FFFFFFFF7654321FFFFF72
:100A500010001001FFFFFFFFF7654321FFFF1000AB
:100A60001001FFFFFFFFFF7654321FFF100010013F
:100A7000FFFFFFFFFFF7654321FF10001001FFFF9D
:100A8000FFFFFFFF7654321F10001001FFFFFFFF32
:100A9000FFFFF765432110001001FFFFFFFFFFFF7D
:100AA000FF76543210001001FFFFFFFFFFFFFFF73A
:100AB000654310001001FFFFFFFFFFFFFFFF7654AB
:100AC00010001001FFFFFFFFFFFFFFFFF7651000A1
:100AD0001001FFFFFFFFFFFFFFFFFF761000100177
:100AE000FFFFFFFFFFFFFFFFFFF710001001FFFFF9
:100AF000FFFFFFFFFFFFFFFF1000100110000000CD
:100B000000000000000010001001210000000000A3
:100B10000000000010001001321000000000000072
:100B20000000100010014321000000000000000040
:100B300010001001543210000000000000001000EE
:100B400010016543210000000000000010001001AA
:100B500076543210000000000000100010011765EC
:100B600043210000000000001000100121765432E3
:100B70001000000000001000100132176543210032
:100B800000000000100010014321765432100000D4
:100B900000001000100154321765432100000000CE
:100BA000100010016543217654321000000010003F
:100BB0001001765432176543210000001000100127
:100BC0001765432176543210000010001001217681
:100BD000543217654321000010001001321765439D
:100BE0002176543210001000100143217654321740
:100BF00065432100100010015432176543217654DB
:100C000032101000100165432176543217654321DC
:100C100010001001765432176543217654323F009C
:100C20003F01123456712345671234563F003F018D
:100C3000234567123456712345673F003F01345600
:100C400071234567123456713F003F0145671234E6
:100C50005671234567123F003F01567123456712C5
:100C6000345671233F003F016712345671234567A4
:100C700012343F003F0171234567123456712345FA
:100C8000100A100112345671234567123456100AA7
:100C9000100123456712345671234567100A10016D
:100CA00034567123456712345671100A1001456796
:100CB0001234567123456712100A100156712345EC
:100CC000671234567123100A1001671234567123CB
:100CD00045671234100A10017123456712345671AA
:100CE0002345080008011712345671234567123452
:100CF000080008011171234567123456712308005A
:100D000008011117123456712345671208000801B3
:100D10001111712345671234567108000801111131
:100D2000171234567123456708000801111111711B
:100D300023456712345608000801111111171234A7
:100D400056712345080008011111111171234567DF
:100D500012340800080111111111171234567123B1
:100D600008000801111111111171234567120800C3
:100D700008011111111111171234567108000801E0
:100D8000111111111111712345670800080111118A
:100D90001111111117123456080008011111111107
:100DA00011111171234508000801111111111111C0
:100DB000111712340800080111111111111111112C
:100DC00071230800080111111111111111111712CD
:100DD00008000801111111111111111111710800F0
:100DE000080111111111111111111117FFFFFF014C
:100DF00011111111111111111111FFFFFF01222207
:100E00002222222222222222FFFFFF013333333308
:100E1000333333333333FFFFFF014444444444440A
:100E200044444444FFFFFF0155555555555555550C
:100E30005555FFFFFF01666666666666666666660E
:100E4000FFFFFF01777777777777777777773F407F
:100E50003F012000000000000000000B3F403F0168
:100E6000020000000000000000B03F403F010020F1
:100E70000000000000000B003F403F0100020000A6
:100E800000000000B0003F403F01000020000000D3
:100E9000000B00003F403F0100000200000000B0D6
:100EA00000003F403F010000002000000B00000058
:100EB0003F403F01000000020000B00000003F4042
:100EC0003F0100000000200B000000003F403F01F8
:100ED0000000000002B0000000003F403F010000A1
:100EE00000000B20000000003F403F010000000018
:100EF000B002000000003F403F010000000B000076
:100F0000200000003F403F01000000B00000020050
:100F100000003F403F0100000B00000000200000E7
:100F20003F403F010000B0000000000200003F40D1
:100F30003F01000B00000000000020003F403F0187
:100F400000B000000000000002003F403F010B0025
:100F500000000000000000203F403F01B000000002
:100F60000000000000023F403F017333333333334E
:100F7000333333363F403F01373333333333333347
:100F800033633F403F0133733333333333333633CB
:100F90003F403F01333733333333333363333F40E1
:100FA0003F01333373333333333633333F403F0101
:100FB000333337333333336333333F403F013333DA
:100FC00033733333363333333F403F0133333337B7
:100FD0003333633333333F403F013333333373367B
:100FE000333333333F403F013333333337633333AA
:100FF00033333F403F01333333333673333333338B
:101000003F403F01333333336337333333333F4070
:101010003F01333333363333733333333F403F0190
:10102000333333633333373333333F403F01333369
:1010300036333333337333333F403F01333363331A
:101040003333333733333F403F0133363333333376
:10105000333373333F403F013363333333333333FD
:1010600037333F403F013633333333333333337316
:101070003F403F016333333333333333333700007F
:1010800000000083000026A70000B6DC0000FF007F
:101090000000A719A9000000FF00003EB100AA55FA
:1010A0000000007F7F0033666600AA005500020240
:0E10B000020014141400FFFFFF0055555500F8
:00000001FF
