:020000020000FC
:100000000FC00DC00CC00BC00AC009C008C007C09B
:1000100006C005C004C003C002C001C000C01895DE
:1000200002E00EBF0FE50DBFA89508E10093210087
:1000300001E20093210005E007BB21D013D0B5D029
:100040003068C098862E56D03EF0892E53D026F0C8
:10005000782F37FD02D0F6CFF5CFA7D00EF0089558
:100060005A9509F41FD030FD05C0E0916000F09171
:100070006100F3CFE0916200F0916300EECFA6E65D
:10008000B0E004E211271D931D931D931D931D9352
:100090001D930A95C1F70AE90093640002E00093FA
:1000A000650008954427E0916400F0916500059192
:1000B0000F3F39F40AE90093640002E00093650001
:1000C000F1CF102F307F1F70312B0095007F202E35
:1000D0005591059100936000059100936100059191
:1000E00000936200059100936300E0936400F09335
:1000F00065000895882009F408959FD005D0BED0EA
:100100000EF408958A94F6CF0F932F93AF93BF9375
:1001100024E2ABE6B0E01D9108E0C29A111F08F49A
:1001200010D0C29808F00DD00A95B9F7AB5FBF4F59
:100130002A9589F7C298BF91AF912F910F91089599
:10014000FFCF00000895AA24BB24222311F4AA940F
:1001500007C0121B004020F0A394D9F7B394F9CF45
:10016000120F08951F932F93AF92BF92CF920D93CA
:10017000AC5FBF4FCC90A450B040AA240C1530F413
:10018000AA94102F0C2DC12E272F01C0262FAD921F
:100190000C191127D8DFAD92BD92AE5FBF4FCF9043
:1001A000BF90AF902F911F910895A895689430FF4C
:1001B00002C0EA50F040C0916000D0916100EC179D
:1001C000FD0708F40895C0916200D0916300EC1718
:1001D000FD0708F00895659195918591EF5FFF4FB8
:1001E00026E031FD03C0A6E6B0E002C0ACE2B1E01B
:1001F00005910F9302950F700BD00F910F7008D0DF
:100200002A95B1F7E89430FF0895EA50F040089538
:10021000EF93FF93000F000FEEE3F7E0E00F0027EE
:10022000F01F05919FDF05919DDF05919BDFFF91F9
:10023000EF9131FDA452B0400895A6E6B0E024E26B
:10024000ED900D91BD90CD90DD90FC90A150B0400F
:10025000EF1408F006C0DB18FC0848F0EF1438F47F
:1002600008C0DB0CFC1C18F0FE1408F402C0FE2CC5
:10027000DD24DD92FD922A9519F708950F931F93BF
:1002800018ECA895022D03955CDF0A95E9F71A95FD
:10029000C1F71F910F9108950895E0100E055405C0
:1002A000E2100E055405C00308064E0600011003B7
:1002B0001A030004D8038C040204D8038C044202FD
:1002C0002403D80360022403D803E0100E0554056C
:1002D000E2100E055405C2102403D803E0102403D5
:1002E000D803E0018C040E05821054059A05801095
:1002F00054059A0502019A050806FFFF0800080147
:1003000000000000000008000801FFFFFFFFFFFFE2
:100310007F807F01FFFFFFFFFFFF7F807F010000E5
:10032000000000001000100110000000000010008C
:100330001001210000000000100010013210000028
:100340000000100010014321000000001000100107
:10035000543210000000100010016543210000001D
:1003600010001001765432100000100010010765D3
:1003700043210000100010010076543210001000DC
:1003800010010007654321001000100100007654A1
:100390003210100010010000076543211000100109
:1003A0000000007654321000100100000007654381
:1003B0001000100100000000765410001001000031
:1003C000000007651000100100000000007610001A
:1003D0001001000000000007100010011FFFFFFFC8
:1003E000FFFF1000100121FFFFFFFFFF10001001B1
:1003F000321FFFFFFFFF100010014321FFFFFFFF2F
:100400001000100154321FFFFFFF10001001654360
:1004100021FFFFFF100010017654321FFFFF100074
:100420001001F7654321FFFF10001001FF765432E1
:100430001FFF10001001FFF7654321FF100010019E
:10044000FFFF7654321F10001001FFFFF7654321B4
:1004500010001001FFFFFF76543210001001FFFF63
:10046000FFF7654310001001FFFFFFFF76541000F7
:100470001001FFFFFFFFF76510001001FFFFFFFFF6
:10048000FF7610001001FFFFFFFFFFF710001001C3
:10049000100000000000100010012100000000000A
:1004A0001000100132100000000010001001432164
:1004B0000000000010001001543210000000100075
:1004C0001001654321000000100010017654321025
:1004D00000001000100117654321000010001001FA
:1004E00021765432100010001001321765432100AC
:1004F00010001001432176543210100010015432C4
:1005000017654321100010016543217654323F00E6
:100510003F011234567123453F003F0123456712C6
:1005200034563F003F013456712345673F003F0179
:100530004567123456713F003F01567123456712DB
:100540003F003F016712345671233F003F01712382
:1005500045671234100A1001123456712345100AEF
:100560001001234567123456100A100134567123C6
:100570004567100A1001456712345671100A1001C0
:10058000567123456712100A100167123456712301
:10059000100A100171234567123408000801171270
:1005A00034567123080008011171234567120800B1
:1005B0000801111712345671080008011111712336
:1005C0004567080008011111171234560800080188
:1005D000111111712345080008011111111712346E
:1005E00008000801111111117123080008011111EF
:1005F00011111712080008011111111111710800D1
:100600000801111111111117FFFFFF011111111133
:100610001111FFFFFF01222222222222FFFFFF01F0
:10062000333333333333FFFFFF0144444444444402
:10063000FFFFFF01555555555555FFFFFF016666F4
:1006400066666666FFFFFF017777777777773F40CB
:100650003F0120000000000B3F403F01020000006E
:1006600000B03F403F01002000000B003F403F0131
:1006700000020000B0003F403F010000200B0000DE
:100680003F403F01000002B000003F403F0100003A
:100690000B2000003F403F010000B00200003F403F
:1006A0003F01000B000020003F403F0100B0000070
:1006B00002003F403F010B00000000203F403F018F
:1006C000B000000000023F403F0173333333333644
:1006D0003F403F013733333333633F403F01337390
:1006E000333336333F403F013337333363333F4097
:1006F0003F013333733633333F403F013333376386
:1007000033333F403F013333367333333F403F0190
:100710003333633733333F403F013336333373333F
:100720003F403F013363333337333F403F0136337C
:10073000333333733F403F01633333333337000088
:1007400000000083000026A70000B6DC0000FF00C8
:100750000000A719A9000000FF00003EB100AA5543
:100760000000007F7F0033666600AA005500020289
:0E077000020014141400FFFFFF005555550041
:00000001FF
