:020000020000FC
:100000000FC00DC00CC00BC00AC009C008C007C09B
:1000100006C005C004C003C002C001C000C01895DE
:10002000A89508E10093210001E20093210004E07B
:1000300007BB00E008BB00E408B901E807B938D005
:1000400010D041E0459B02C041E00BD04130D1F7D8
:1000500001D0F8CF3ED01EF082D073D0089540E09A
:100060000895E0916400F0916500059100936000AF
:1000700005910F3F39F40CE90093640001E000930F
:100080006500EFCF00936100059100936200059138
:1000900000936300E0936400F0936500E0916000DA
:1000A000F0916100089515D00EF00895DADFFBCFCE
:1000B000A6E6B0E0C0E3D0E011271D93C150D040C8
:1000C000E1F70CE90093640001E00093650034E679
:1000D0000895A8956894C0916200D0916300EC17D0
:1000E000FD0708F0089528E0A6E6B0E005910F931B
:1000F00002950F7012D00F910F700FD02A95B1F7A3
:10010000E8940895A6E6B0E020E109E01F5008F465
:1001100005E003D02A95D1F70895EF93FF930F934D
:10012000000F000FE2E7F3E0E00F0027F01F05915A
:100130000D9305910D9305910D930F91FF91EF9103
:1001400008950F931F9312E3A895032F039524D0CE
:100150000A95E9F71A95C1F71F910F9108950F932A
:100160002F93AF93BF9320E3A6E6B0E01D911295C5
:100170001F7008E0C29A111F08F40ED0C29808F050
:100180000BD00A95B9F72A9589F7C298BF91AF911C
:100190002F910F910895FFCF00000895A2013A0317
:1001A000FFFF000000100000000000000000000041
:1001B000000000000000000000000000000000003F
:1001C000000000000000000000000000000000002F
:1001D000000000000000000000000000000000001F
:1001E000000000000000000000000000000000000F
:1001F00000000000000000000000000000000000FF
:1002000000000000000000000000000000000000EE
:1002100000000000000000000000000000000000DE
:1002200000000000000000000000000000000000CE
:1002300000000000000000000000000000000000BE
:10024000000000000000000000000BBBBBB0FFFF7F
:10025000FFF0B0000000000F00000BBB0000000F1B
:100260000000B0000000000F00000BBBBBB0FFFFA0
:10027000FFF000000000000000000BBB0000FFFFCB
:10028000FFF0B000B000F00F00F0B000B000F00FD1
:1002900000F00BBB0000F00F00F000000000F000C9
:1002A00000F0BBBBB000000000000000B000FFFF8A
:1002B000FFF00000B000F00000000000B000F0000F
:1002C000000000000000F0000000BBBBBBB0F0006D
:1002D0000000B000000000000000B0000000FFFFC0
:1002E000FFF0B0000000F000000000000000F0008F
:1002F00000000BBB0000F0000000B000B000F000F8
:100300000000B000B00000000000BBBBBBB00FFF9E
:10031000FF0000000000F00000F000000000F0000E
:1003200000F000000000F00000F0B0BBBBB00FFF19
:10033000FF00000000000000000012345671234549
:10034000671223456712345671233456712345676B
:10035000123445671234567123455671234567128E
:10036000345667123456712345677123456712343A
:100370005671000000000083000026A70000B6DCD4
:100380000000FF000000A719A9000000FF00003EC8
:10039000B100AA550000007F7F0033666600AA0006
:1003A0005500020202001414140055555500FFFFB9
:0203B000FF004C
:00000001FF
